:100000000C942A000C943F000C943F000C943F0089
:100010000C943F000C943F000C943F000C943F0064
:100020000C943F000C943F000C943F000C943F0054
:100030000C943F000C943F000C943F000C943F0044
:100040000C943F000C943F000C943F000C943F0034
:100050000C943F0011241FBECFE5D8E0DEBFCDBF1A
:1000600010E0A0E6B0E0E0E5FEE202C005900D92EF
:10007000A438B107D9F70E94650D0C9426170C948B
:100080000000EF92FF920F931F937B018C0120E001
:1000900030E040E05FE40E94410388238CF0C80117
:1000A000B70120E030E040E05FE40E94B9010E9427
:1000B000A1039B01AC01205030404040504806C095
:1000C000C801B7010E94A1039B01AC01B901CA019B
:1000D0001F910F91FF90EF900895A0E0B0E0E3E74B
:1000E000F0E00C94EF16DC012B01FA019C919230A8
:1000F00008F439C1EB018881823008F433C19430AF
:1001000069F4843009F02FC111969C91119789816F
:10011000981709F428C1A0E6B0E025C1843009F49D
:1001200021C18230A9F4923009F01DC19A01AD01BC
:1001300088E0EA010990AE01E90109929E0181502F
:10014000C1F7E201898111969C918923818308C1BD
:10015000923009F407C112962D903C901397EB0151
:100160008A819B811496AD90BD90CD90DC901797BD
:10017000EC80FD800E811F819101281B390BB90194
:1001800037FF04C066277727621B730B6032710547
:100190000CF061C0121613066CF537014801062EEB
:1001A00004C096948794779467940A94D2F721E0D8
:1001B00030E040E050E004C0220F331F441F551FC1
:1001C0006A95D2F721503040404050402E213F21C7
:1001D00040235123211531054105510521F021E02E
:1001E00030E040E050E079018A01E628F72808294C
:1001F00019293CC0232BD1F1260E371E35014601AB
:10020000062E04C096948794779467940A94D2F744
:1002100021E030E040E050E004C0220F331F441FD3
:10022000551F6A95D2F721503040404050402A2156
:100230003B214C215D21211531054105510521F05E
:1002400021E030E040E050E059016A01A628B728DB
:10025000C828D9280BC0821593052CF01C01AA24AC
:10026000BB24650103C0EE24FF24870111969C91F5
:10027000D20111968C91981709F445C0992339F051
:10028000A80197012A193B094C095D0906C0A6017E
:1002900095012E193F09400B510B57FD08C01182E3
:1002A0003382228224833583468357831DC081E0B5
:1002B00081833382228288279927DC01821B930B5A
:1002C000A40BB50B84839583A683B7830DC0220F3F
:1002D000331F441F551F24833583468357838281F0
:1002E000938101979383828324813581468157814D
:1002F000DA01C9010197A109B1098F5F9F4FAF4F83
:10030000BF4328F30BC0918333822282EA0CFB1C8B
:100310000C1D1D1DE482F5820683178383E0808314
:10032000248135814681578157FF1AC0C901AA2708
:1003300097FDA095BA2F81709070A070B0705695FF
:10034000479537952795822B932BA42BB52B848328
:100350009583A683B7838281938101969383828359
:10036000DF0101C0D201CD01CDB7DEB7E2E10C94CF
:100370000B17A0E2B0E0EFEBF1E00C94FB16698301
:100380007A838B839C832D833E834F835887E9E058
:10039000EE2EF12CEC0EFD1ECE010196B7010E944F
:1003A000CA048E010F5E1F4FCE010596B8010E9450
:1003B000CA048A8991E089278A8BC701B801AE01F6
:1003C000475E5F4F0E946D000E94F503A096E6E035
:1003D0000C941717A0E2B0E0E0EFF1E00C94FB16EC
:1003E00069837A838B839C832D833E834F835887D5
:1003F000F9E0EF2EF12CEC0EFD1ECE010196B701B7
:100400000E94CA048E010F5E1F4FCE010596B801EF
:100410000E94CA04C701B801AE01475E5F4F0E9447
:100420006D000E94F503A096E6E00C941717A0E279
:10043000B0E0EDE1F2E00C94EF1669837A838B83F0
:100440009C832D833E834F835887CE010196BE0146
:10045000675F7F4F0E94CA04CE010596BE016F5EA2
:100460007F4F0E94CA049985923088F08989823032
:10047000C8F0943019F4823051F404C0843029F467
:10048000923081F480E690E0C6C0923049F420E0DA
:100490009A858A89981321E02A87CE010996BBC0E4
:1004A000823049F420E09A858A89981321E02A8BCA
:1004B000CE014196B0C02D843E844F8458886D880B
:1004C0007E888F88988CEE24FF248701AA24BB2481
:1004D000650140E050E060E070E0E0E0F0E0C10184
:1004E00081709070892BE9F0E60CF71C081D191D2E
:1004F0009A01AB012A0D3B1D4C1D5D1D80E090E073
:10050000A0E0B0E0E614F7040805190520F481E046
:1005100090E0A0E0B0E0BA01A901480F591F6A1F9E
:100520007B1FAA0CBB1CCC1CDD1C97FE08C081E005
:1005300090E0A0E0B0E0A82AB92ACA2ADB2A3196C6
:10054000E032F10549F0660C771C881C991C569422
:10055000479437942794C3CFFA85EA892B893C893D
:100560008B859C85280F391F2E5F3F4F17C0CA010E
:1005700081709070892B61F016950795F794E79438
:1005800080E090E0A0E0B0E8E82AF92A0A2B1B2BD3
:1005900076956795579547952F5F3F4F77FDE7CF46
:1005A0000CC0440F551F661F771F17FD4160EE0CEE
:1005B000FF1C001F111F21503040403090E05907B0
:1005C00090E0690790E4790760F32B8F3C8FDB01A3
:1005D000CA018F779070A070B07080349105A1052A
:1005E000B10561F447FD0AC0E114F10401051105EC
:1005F00029F0405C5F4F6F4F7F4F40781A8EFE1797
:1006000011F081E08A8F4D8F5E8F6F8F78A383E02A
:10061000898FCE0149960E94F503A096E2E10C94E1
:100620000B17A8E1B0E0E7E1F3E00C94FB16698357
:100630007A838B839C832D833E834F83588789E005
:10064000E82EF12CEC0EFD1ECE010196B7010E94A2
:10065000CA048E010F5E1F4FCE010596B8010E949D
:10066000CA048985823040F08989823028F0C70128
:10067000B8010E94420501C08FEF6896E6E00C9435
:100680001717A8E1B0E0E7E4F3E00C94FB166983E8
:100690007A838B839C832D833E834F83588789E0A5
:1006A000E82EF12CEC0EFD1ECE010196B7010E9442
:1006B000CA048E010F5E1F4FCE010596B8010E943D
:1006C000CA048985823040F08989823028F0C701C8
:1006D000B8010E94420501C08FEF6896E6E00C94D5
:1006E0001717A8E1B0E0E7E7F3E00C94FB16698385
:1006F0007A838B839C832D833E834F83588789E045
:10070000E82EF12CEC0EFD1ECE010196B7010E94E1
:10071000CA048E010F5E1F4FCE010596B8010E94DC
:10072000CA048985823040F08989823028F0C70167
:10073000B8010E94420501C081E06896E6E00C9491
:100740001717ACE0B0E0E7EAF3E00C94FF1669831A
:100750007A838B839C83CE010196BE016B5F7F4FB2
:100760000E94CA048D81823061F1823050F1843060
:1007700021F48E81882351F12EC02F81388537FDD9
:1007800020C06E812F3131051CF06623F9F023C0A3
:100790008EE190E0821B930B29853A854B855C8521
:1007A00004C056954795379527958A95D2F76623C5
:1007B000B1F050954095309521953F4F4F4F5F4F89
:1007C0000EC020E030E040E050E009C02FEF3FEFE6
:1007D0004FEF5FE704C020E030E040E050E8B901AF
:1007E000CA012C96E2E00C941B17DF92EF92FF9265
:1007F0000F931F93FC01E480F58006811781D1805F
:100800008081823048F480E090E0A0E1B0E0E82A06
:10081000F92A0A2B1B2BA5C0843009F49FC0823013
:1008200021F4EE24FF24870105C0E114F104010541
:10083000110519F4E0E0F0E096C0628173819FEF4A
:10084000623879070CF05BC022E83FEF261B370BBC
:100850002A3131052CF020E030E040E050E02AC0A1
:10086000B801A701022E04C0769567955795479564
:100870000A94D2F781E090E0A0E0B0E004C0880FD5
:10088000991FAA1FBB1F2A95D2F70197A109B10989
:100890008E219F21A023B1230097A105B10521F04E
:1008A00081E090E0A0E0B0E09A01AB01282B392B69
:1008B0004A2B5B2BDA01C9018F779070A070B07062
:1008C00080349105A105B10539F427FF09C0205CEA
:1008D0003F4F4F4F5F4F04C0215C3F4F4F4F5F4F23
:1008E000E0E0F0E02030A0E03A07A0E04A07A0E412
:1008F0005A0710F0E1E0F0E079018A0127C0603882
:10090000710564F5FB01E158FF4FD801C7018F77EE
:100910009070A070B07080349105A105B10539F4D4
:10092000E7FE0DC080E490E0A0E0B0E004C08FE3FB
:1009300090E0A0E0B0E0E80EF91E0A1F1B1F17FFB1
:1009400005C016950795F794E794319687E01695BC
:100950000795F794E7948A95D1F705C0EE24FF2414
:100960008701EFEFF0E06E2F679566276795902F70
:100970009F77D794DD24D7948E2F8695492F462BC9
:10098000582F5D29B701CA011F910F91FF90EF9079
:10099000DF900895FC01DB01408151812281622FAB
:1009A0006F7770E0221F2227221F9381892F880FE3
:1009B000822B282F30E0991F9927991F11969C931D
:1009C000119721153105A9F54115510561057105ED
:1009D00011F482E037C082E89FEF13969C938E93C8
:1009E00012979A01AB0167E0220F331F441F551F76
:1009F0006A95D1F783E08C930DC0220F331F441FFB
:100A0000551F12968D919C911397019713969C9365
:100A10008E931297203080E0380780E0480780E40A
:100A2000580758F314962D933D934D935C93179765
:100A300008952F3F310579F4411551056105710580
:100A400019F484E08C93089564FF03C081E08C93D3
:100A500012C01C9210C02F57304013963C932E9317
:100A6000129783E08C9387E0440F551F661F771F12
:100A70008A95D1F7706414964D935D936D937C9332
:100A8000179708951F93DC01FB019C91923008F4A5
:100A900047C08081823008F443C0943051F41196ED
:100AA0001C91843099F58181682F70E0611B710978
:100AB0003FC0843021F0923031F48230B9F181812D
:100AC000882389F12DC011961C9111978230F1F085
:100AD00081811817D9F412962D913C911397828138
:100AE00093818217930794F028173907BCF0149666
:100AF0008D919D910D90BC91A02D248135814681D1
:100B00005781281739074A075B0718F4112341F06A
:100B10000AC082179307A407B50740F4112319F000
:100B200061E070E005C06FEF7FEF02C060E070E051
:100B3000CB011F910895DF93CF93CDB7DEB72897F0
:100B40000FB6F894DEBF0FBECDBF8A836B834C8394
:100B500081E089838A81843008F0F1C08B818830FC
:100B600008F0EDC08C81813009F06FC08A81282F98
:100B700030E038872F838F8198858130910549F146
:100B80002F813885223031052CF48F81988500978C
:100B900061F0D6C02F8138852230310571F18F8107
:100BA000988583309105E9F1CBC0AAE3B0E0EAE390
:100BB000F0E08081482F8B81282F30E081E090E0A9
:100BC000022E02C0880F991F0A94E2F7842B8C939F
:100BD000B7C0A7E3B0E0E7E3F0E08081482F8B8166
:100BE000282F30E081E090E0022E02C0880F991F8C
:100BF0000A94E2F7842B8C93A3C0A4E3B0E0E4E36F
:100C0000F0E08081482F8B81282F30E081E090E058
:100C1000022E02C0880F991F0A94E2F7842B8C934E
:100C20008FC0A1E3B0E0E1E3F0E08081482F8B8149
:100C3000282F30E081E090E0022E02C0880F991F3B
:100C40000A94E2F7842B8C937BC08C81882309F073
:100C500074C08A81282F30E03E832D838D819E8150
:100C60008130910559F12D813E81223031052CF4DE
:100C70008D819E81009769F063C02D813E81223075
:100C8000310589F18D819E818330910509F440C041
:100C900057C0AAE3B0E0EAE3F0E08081482F8B81FF
:100CA000282F30E081E090E0022E02C0880F991FCB
:100CB0000A94E2F7809584238C9342C0A7E3B0E0C6
:100CC000E7E3F0E08081482F8B81282F30E081E03E
:100CD00090E0022E02C0880F991F0A94E2F78095D7
:100CE00084238C932DC0A4E3B0E0E4E3F0E08081A2
:100CF000482F8B81282F30E081E090E0022E02C047
:100D0000880F991F0A94E2F7809584238C9318C06A
:100D1000A1E3B0E0E1E3F0E08081482F8B81282F50
:100D200030E081E090E0022E02C0880F991F0A9403
:100D3000E2F7809584238C9303C0198201C0198245
:100D4000898128960FB6F894DEBF0FBECDBFCF9134
:100D5000DF910895DF93CF93CDB7DEB728970FB615
:100D6000F894DEBF0FBECDBF8A836B834C8381E0D6
:100D700089838A81843008F0F1C08B81883008F043
:100D8000EDC08C81813009F06FC08A81282F30E05E
:100D900038872F838F8198858130910549F12F8184
:100DA0003885223031052CF48F819885009761F0C9
:100DB000D6C02F8138852230310571F18F81988519
:100DC00083309105E9F1CBC0ABE3B0E0EBE3F0E0B9
:100DD0008081482F8B81282F30E081E090E0022E27
:100DE00002C0880F991F0A94E2F7842B8C93B7C036
:100DF000A8E3B0E0E8E3F0E08081482F8B81282F62
:100E000030E081E090E0022E02C0880F991F0A9422
:100E1000E2F7842B8C93A3C0A5E3B0E0E5E3F0E018
:100E20008081482F8B81282F30E081E090E0022ED6
:100E300002C0880F991F0A94E2F7842B8C938FC00D
:100E4000A2E3B0E0E2E3F0E08081482F8B81282F1D
:100E500030E081E090E0022E02C0880F991F0A94D2
:100E6000E2F7842B8C937BC08C81882309F074C0BB
:100E70008A81282F30E03E832D838D819E818130B1
:100E8000910559F12D813E81223031052CF48D815F
:100E90009E81009769F063C02D813E81223031052B
:100EA00089F18D819E818330910509F440C057C03E
:100EB000ABE3B0E0EBE3F0E08081482F8B81282F9B
:100EC00030E081E090E0022E02C0880F991F0A9462
:100ED000E2F7809584238C9342C0A8E3B0E0E8E376
:100EE000F0E08081482F8B81282F30E081E090E076
:100EF000022E02C0880F991F0A94E2F7809584237E
:100F00008C932DC0A5E3B0E0E5E3F0E08081482FAD
:100F10008B81282F30E081E090E0022E02C0880F04
:100F2000991F0A94E2F7809584238C9318C0A2E35A
:100F3000B0E0E2E3F0E08081482F8B81282F30E0A1
:100F400081E090E0022E02C0880F991F0A94E2F718
:100F5000809584238C9303C0198201C019828981F2
:100F600028960FB6F894DEBF0FBECDBFCF91DF91AC
:100F70000895DF93CF93CDB7DEB727970FB6F894D8
:100F8000DEBF0FBECDBF8A836B835D834C8381E060
:100F900089838A81843008F0A6C08B81883008F06C
:100FA000A2C08A81282F30E03F832E834E815F814B
:100FB00041305105C1F18E819F818230910534F419
:100FC0002E813F812115310571F08EC04E815F81E8
:100FD0004230510509F447C08E819F8183309105CD
:100FE00009F461C081C0E9E3F0E08081482F50E05E
:100FF0008B81282F30E081E090E002C0880F991F9C
:101000002A95E2F79A01282339238B81882F90E0D3
:10101000A90102C0559547958A95E2F7CA01EC816E
:10102000FD81808361C0E6E3F0E08081482F50E0DD
:101030008B81282F30E081E090E002C0880F991F5B
:101040002A95E2F79A01282339238B81882F90E093
:10105000A90102C0559547958A95E2F7CA01EC812E
:10106000FD81808341C0E3E3F0E08081482F50E0C0
:101070008B81282F30E081E090E002C0880F991F1B
:101080002A95E2F79A01282339238B81882F90E053
:10109000A90102C0559547958A95E2F7CA01EC81EE
:1010A000FD81808321C0E0E3F0E08081482F50E0A3
:1010B0008B81282F30E081E090E002C0880F991FDB
:1010C0002A95E2F79A01282339238B81882F90E013
:1010D000A90102C0559547958A95E2F7CA01EC81AE
:1010E000FD81808301C01982898127960FB6F8940B
:1010F000DEBF0FBECDBFCF91DF910895DF93CF93B9
:1011000000D000D00F92CDB7DEB78A836B8381E029
:1011100089838B81883008F06FC08A81282F30E066
:101120003D832C838C819D818130910549F12C81F7
:101130003D81223031052CF48C819D81009761F036
:101140005CC02C813D812230310571F18C819D8103
:1011500083309105E9F151C0ABE3B0E0EBE3F0E09F
:101160008081482F8B81282F30E081E090E0022E93
:1011700002C0880F991F0A94E2F784278C933DC020
:10118000A8E3B0E0E8E3F0E08081482F8B81282FCE
:1011900030E081E090E0022E02C0880F991F0A948F
:1011A000E2F784278C9329C0A5E3B0E0E5E3F0E003
:1011B0008081482F8B81282F30E081E090E0022E43
:1011C00002C0880F991F0A94E2F784278C9315C0F8
:1011D000A2E3B0E0E2E3F0E08081482F8B81282F8A
:1011E00030E081E090E0022E02C0880F991F0A943F
:1011F000E2F784278C9301C0198289810F900F90A8
:101200000F900F900F90CF91DF910895DF93CF93C0
:1012100000D000D000D0CDB7DEB78A836B834C837B
:1012200081E089838A81843008F03EC18B818830D7
:1012300008F03AC18A81282F30E03E832D838D81CA
:101240009E818130910509F45DC02D813E8122305F
:1012500031052CF48D819E81009771F026C12D817E
:101260003E812230310509F493C08D819E81833007
:10127000910509F4D3C019C18C81813071F5A0E5C5
:10128000B0E0E0E5F0E080818B7F8C93AAE3B0E0F2
:10129000EAE3F0E08081482F8B81282F30E081E065
:1012A00090E002C0880F991F2A95E2F78095842369
:1012B0008C93ABE3B0E0EBE3F0E08081482F8B81CF
:1012C000282F30E081E090E0022E02C0880F991FA5
:1012D0000A94E2F7842B8C93E8C0ABE3B0E0EBE335
:1012E000F0E08081482F8B81282F30E081E090E072
:1012F000022E02C0880F991F0A94E2F7809584237A
:101300008C93D3C08C81813071F5A0E5B0E0E0E52D
:10131000F0E080818B7F8C93A7E3B0E0E7E3F0E01F
:101320008081482F8B81282F30E081E090E002C03F
:10133000880F991F2A95E2F7809584238C93A8E360
:10134000B0E0E8E3F0E08081482F8B81282F30E087
:1013500081E090E0022E02C0880F991F0A94E2F704
:10136000842B8C93A2C0A8E3B0E0E8E3F0E0808196
:10137000482F8B81282F30E081E090E0022E02C0C0
:10138000880F991F0A94E2F7809584238C938DC06F
:101390008C81813071F5A0E5B0E0E0E5F0E080817E
:1013A0008B7F8C93A4E3B0E0E4E3F0E08081482FEE
:1013B0008B81282F30E081E090E002C0880F991FD8
:1013C0002A95E2F7809584238C93A5E3B0E0E5E3CA
:1013D000F0E08081482F8B81282F30E081E090E081
:1013E000022E02C0880F991F0A94E2F7842B8C9377
:1013F0005CC0A5E3B0E0E5E3F0E08081482F8B819D
:10140000282F30E081E090E0022E02C0880F991F63
:101410000A94E2F7809584238C9347C08C818130B5
:1014200071F5A0E5B0E0E0E5F0E080818B7F8C9382
:10143000A1E3B0E0E1E3F0E08081482F8B81282F29
:1014400030E081E090E002C0880F991F2A95E2F712
:10145000809584238C93A2E3B0E0E2E3F0E0808106
:10146000482F8B81282F30E081E090E0022E02C0CF
:10147000880F991F0A94E2F7842B8C9316C0A2E37D
:10148000B0E0E2E3F0E08081482F8B81282F30E04C
:1014900081E090E0022E02C0880F991F0A94E2F7C3
:1014A000809584238C9301C01982898126960FB67A
:1014B000F894DEBF0FBECDBFCF91DF910895DF93CB
:1014C000CF9300D000D00F92CDB7DEB78A836B8365
:1014D00081E089838A818430A8F58A81282F30E0D1
:1014E0003D832C838C819D8181309105D1F02C81AD
:1014F0003D81223031052CF48C819D81009761F073
:101500001FC02C813D812230310581F08C819D816D
:101510008330910581F014C0EAE3F0E08B81808391
:1015200012C0E7E3F0E08B8180830DC0E4E3F0E0DC
:101530008B81808308C0E1E3F0E08B81808303C06E
:10154000198201C0198289810F900F900F900F901E
:101550000F90CF91DF910895DF93CF9300D000D00B
:101560000F92CDB7DEB78A836B8381E089838A814E
:101570008430A8F58A81282F30E03D832C838C812C
:101580009D8181309105D1F02C813D812230310542
:101590002CF48C819D81009761F01FC02C813D81CE
:1015A0002230310581F08C819D818330910581F05D
:1015B00014C0EBE3F0E08B81808312C0E8E3F0E03D
:1015C0008B8180830DC0E5E3F0E08B81808308C0D0
:1015D000E2E3F0E08B81808303C0198201C01982AD
:1015E00089810F900F900F900F900F90CF91DF9106
:1015F0000895DF93CF9300D000D0CDB7DEB78A83B4
:1016000081E089838A81843008F03FC08A81282F55
:1016100030E03C832B838B819C8181309105E9F004
:101620002B813C81223031052CF48B819C810097E9
:1016300061F02CC02B813C8122303105B1F08B81CF
:101640009C8183309105C9F021C0ABE3B0E0EBE3AE
:10165000F0E0808180958C9319C0A8E3B0E0E8E3C6
:10166000F0E0808180958C9311C0A5E3B0E0E5E3C4
:10167000F0E0808180958C9309C0A2E3B0E0E2E3C2
:10168000F0E0808180958C9301C0198289810F9050
:101690000F900F900F90CF91DF910895DF93CF932C
:1016A00000D000D000D0CDB7DEB78A837C836B83B7
:1016B00081E089838A818430E8F58A81282F30E0AF
:1016C0003E832D838D819E8181309105E1F02D81B6
:1016D0003E81223031052CF48D819E81009761F08E
:1016E00027C02D813E8122303105A1F08D819E8160
:1016F00083309105B1F01CC0E9E3F0E08081EB811B
:10170000FC81808318C0E6E3F0E08081EB81FC81FE
:10171000808311C0E3E3F0E08081EB81FC81808372
:101720000AC0E0E3F0E08081EB81FC81808303C0AC
:10173000198201C01982898126960FB6F894DEBFFE
:101740000FBECDBFCF91DF910895DF93CF9300D02F
:1017500000D00F92CDB7DEB78A836B8381E0898397
:101760008A81843008F05FC08A81282F30E03D8371
:101770002C838C819D818130910529F12C813D81C3
:10178000223031052CF48C819D81009761F04CC092
:101790002C813D812230310531F18C819D81833056
:1017A000910589F141C0ABE3B0E0EBE3F0E080816B
:1017B0008F708C93ABE3B0E0EBE3F0E090818B8132
:1017C000892B8C9331C0A8E3B0E0E8E3F0E080819E
:1017D0008F708C93A8E3B0E0E8E3F0E090818B8118
:1017E000892B8C9321C0A5E3B0E0E5E3F0E0808194
:1017F0008F708C93A5E3B0E0E5E3F0E090818B81FE
:10180000892B8C9311C0A2E3B0E0E2E3F0E0808189
:101810008F708C93A2E3B0E0E2E3F0E090818B81E3
:10182000892B8C9301C0198289810F900F900F90A2
:101830000F900F90CF91DF910895DF93CF9300D059
:1018400000D00F92CDB7DEB78A836B8381E08983A6
:101850008A81843008F05FC08A81282F30E03D8380
:101860002C838C819D818130910529F12C813D81D2
:10187000223031052CF48C819D81009761F04CC0A1
:101880002C813D812230310531F18C819D81833065
:10189000910589F141C0ABE3B0E0EBE3F0E080817A
:1018A000807F8C93ABE3B0E0EBE3F0E090818B8141
:1018B000892B8C9331C0A8E3B0E0E8E3F0E08081AD
:1018C000807F8C93A8E3B0E0E8E3F0E090818B8127
:1018D000892B8C9321C0A5E3B0E0E5E3F0E08081A3
:1018E000807F8C93A5E3B0E0E5E3F0E090818B810D
:1018F000892B8C9311C0A2E3B0E0E2E3F0E0808199
:10190000807F8C93A2E3B0E0E2E3F0E090818B81F2
:10191000892B8C9301C0198289810F900F900F90B1
:101920000F900F90CF91DF910895DF93CF9300D068
:101930000F92CDB7DEB769837A838B8389819A81D1
:10194000692F41E00E949B050F900F900F90CF915F
:10195000DF910895DF93CF9300D00F92CDB7DEB71C
:1019600069837A838B838B81813039F489819A8171
:10197000692F41E00E94AA0609C08B81882331F4B7
:1019800089819A81692F40E00E94AA060F900F90EA
:101990000F90CF91DF910895DF93CF9300D00F92F6
:1019A000CDB7DEB769837A838B838B81813039F43D
:1019B00089819A81692F40E00E94AA0609C08B8123
:1019C000882331F489819A81692F41E00E94AA0617
:1019D0000F900F900F90CF91DF910895DF93CF93E9
:1019E00000D00F92CDB7DEB769837A838B8389816C
:1019F0009A81692F0E947E080F900F900F90CF91CF
:101A0000DF910895DF93CF9300D00F92CDB7DEB76B
:101A100069837A838B8389819A81692F40E00E9450
:101A20009B058B81882331F489819A81692F41E05C
:101A30000E94AA060F900F900F90CF91DF9108950A
:101A4000DF93CF9300D000D00F92CDB7DEB76B837A
:101A50007C838D8319821A828D81882319F08D8170
:101A60008130A1F48B819C819E012E5F3F4F692FB5
:101A7000A9010E94B9078A81882319F481E089832A
:101A80001BC08A818130C1F4198216C08D818230D9
:101A900099F48B819C819E012E5F3F4F692FA90194
:101AA0000E94B9078A81882311F4198205C08A81AE
:101AB000813011F481E0898389810F900F900F901C
:101AC0000F900F90CF91DF9108950F931F93DF93A5
:101AD000CF93CDB7DEB7CA5CD0400FB6F894DEBF67
:101AE0000FBECDBFCE018F579F4FC256DF4F998398
:101AF0008883CE59D04020E830E0C056DF4F39838C
:101B00002883C05AD04033E0CE55DF4F3883C25AC5
:101B1000D040C056DF4FE881F981C05AD0400080E4
:101B2000C056DF4F28813981C05AD0402F5F3F4FC8
:101B3000C056DF4F39832883C05AD040C256DF4F8A
:101B4000E881F981CE59D0400082C256DF4F28810A
:101B50003981CE59D0402F5F3F4FC256DF4F398376
:101B60002883CE59D040CE55DF4F3881C25AD0405D
:101B70003150CE55DF4F3883C25AD040CE55DF4F5B
:101B80008881C25AD040882321F6CE018C579F4FBE
:101B9000CD55DF4F99838883C35AD040EDE7F0E0FD
:101BA000CB55DF4FF983E883C55AD040F3E0C955E0
:101BB000DF4FF883C75AD040CB55DF4FE881F9811A
:101BC000C55AD0400080CB55DF4F28813981C55A96
:101BD000D0402F5F3F4FCB55DF4F39832883C55A05
:101BE000D040CD55DF4FE881F981C35AD040008203
:101BF000CD55DF4F28813981C35AD0402F5F3F4FE9
:101C0000CD55DF4F39832883C35AD040C955DF4FA4
:101C10003881C75AD0403150C955DF4F3883C75A31
:101C2000D040C955DF4F8881C75AD040882321F65C
:101C3000CE0189579F4FC855DF4F99838883C85A73
:101C4000D040EAE7F0E0C655DF4FF983E883CA5A8F
:101C5000D040F3E0C455DF4FF883CC5AD040C6558E
:101C6000DF4FE881F981CA5AD0400080C655DF4F66
:101C700028813981CA5AD0402F5F3F4FC655DF4F68
:101C800039832883CA5AD040C855DF4FE881F9818B
:101C9000C85AD0400082C855DF4F28813981C85AC0
:101CA000D0402F5F3F4FC855DF4F39832883C85A34
:101CB000D040C455DF4F3881CC5AD0403150C45544
:101CC000DF4F3883CC5AD040C455DF4F8881CC5A7F
:101CD000D040882321F6CE0186579F4FC355DF4F52
:101CE00099838883CD5AD040E7E7F0E0C155DF4FB4
:101CF000F983E883CF5AD040F3E0CF54DF4FF88325
:101D0000C15BD040C155DF4FE881F981CF5AD04047
:101D10000080C155DF4F28813981CF5AD0402F5FD5
:101D20003F4FC155DF4F39832883CF5AD040C35529
:101D3000DF4FE881F981CD5AD0400082C355DF4F93
:101D400028813981CD5AD0402F5F3F4FC355DF4F97
:101D500039832883CD5AD040CF54DF4F3881C15BBF
:101D6000D0403150CF54DF4F3883C15BD040CF5487
:101D7000DF4F8881C15BD040882321F6CE01835795
:101D80009F4FCE54DF4F99838883C25BD040E4E7F6
:101D9000F0E0CC54DF4FF983E883C45BD040F3E03C
:101DA000CA54DF4FF883C65BD040CC54DF4FE88184
:101DB000F981C45BD0400080CC54DF4F2881398149
:101DC000C45BD0402F5F3F4FCC54DF4F3983288313
:101DD000C45BD040CE54DF4FE881F981C25BD04074
:101DE0000082CE54DF4F28813981C25BD0402F5F03
:101DF0003F4FCE54DF4F39832883C25BD040CA5453
:101E0000DF4F3881C65BD0403150CA54DF4F388332
:101E1000C65BD040CA54DF4F8881C65BD040882360
:101E200021F6CE0180579F4FC954DF4F9983888395
:101E3000C75BD040E1E7F0E0C754DF4FF983E883A8
:101E4000C95BD040F3E0C554DF4FF883CB5BD04093
:101E5000C754DF4FE881F981C95BD0400080C75487
:101E6000DF4F28813981C95BD0402F5F3F4FC75476
:101E7000DF4F39832883C95BD040C954DF4FE881E5
:101E8000F981C75BD0400082C954DF4F2881398176
:101E9000C75BD0402F5F3F4FC954DF4F3983288342
:101EA000C75BD040C554DF4F3881CB5BD040315049
:101EB000C554DF4F3883CB5BD040C554DF4F88819A
:101EC000CB5BD040882321F6CE018D569F4FC45462
:101ED000DF4F99838883CC5BD040EEE6F0E0C254BC
:101EE000DF4FF983E883CE5BD040F3E0C054DF4F8F
:101EF000F883C05CD040C254DF4FE881F981CE5BEB
:101F0000D0400080C254DF4F28813981CE5BD04061
:101F10002F5F3F4FC254DF4F39832883CE5BD040C1
:101F2000C454DF4FE881F981CC5BD0400082C454B7
:101F3000DF4F28813981CC5BD0402F5F3F4FC454A5
:101F4000DF4F39832883CC5BD040C054DF4F3881CA
:101F5000C05CD0403150C054DF4F3883C05CD040AB
:101F6000C054DF4F8881C05CD040882321F6CE0169
:101F70008A569F4FCF53DF4F99838883C15CD040EF
:101F8000EBE6F0E0CD53DF4FF983E883C35CD0404C
:101F9000F3E0CB53DF4FF883C55CD040CD53DF4F28
:101FA000E881F981C35CD0400080CD53DF4F2881A8
:101FB0003981C35CD0402F5F3F4FCD53DF4F398312
:101FC0002883C35CD040CF53DF4FE881F981C15CE7
:101FD000D0400082CF53DF4F28813981C15CD0408F
:101FE0002F5F3F4FCF53DF4F39832883C15CD040F1
:101FF000CB53DF4F3881C55CD0403150CB53DF4FDE
:102000003883C55CD040CB53DF4F8881C55CD0405E
:10201000882321F6CE0187569F4FCA53DF4F9983FD
:102020008883C65CD040E8E6F0E0C853DF4FF98310
:10203000E883C85CD040F3E0C653DF4FF883CA5C46
:10204000D040C853DF4FE881F981C85CD0400080A0
:10205000C853DF4F28813981C85CD0402F5F3F4F84
:10206000C853DF4F39832883C85CD040CA53DF4F41
:10207000E881F981C65CD0400082CA53DF4F2881D5
:102080003981C65CD0402F5F3F4FCA53DF4F398341
:102090002883C65CD040C653DF4F3881CA5CD0402D
:1020A0003150C653DF4F3883CA5CD040C653DF4F30
:1020B0008881CA5CD040882321F6FE01EF57FF4F8C
:1020C0006081718182810E94950CFE01EC57FF4F67
:1020D0006081718182810E94950CFE01E957FF4F5A
:1020E0006081718182810E94950CFE01E657FF4F4D
:1020F0006081718182810E94950CFE01E357FF4F40
:102100006081718182810E94950CFE01E057FF4F32
:102110006081718182810E94950CFE01ED56FF4F16
:102120006081718182810E94950CFE01EA56FF4F09
:102130006081718182810E94950CFE01E756FF4FFC
:102140006081718182810E94020DFE01E058FF4F83
:102150001082FE01E158FF4F1082FE01E756FF4F4B
:102160006081718182810E94200DFE01E158FF4F44
:102170008083FE01E158FF4F8081813071F7DE01DD
:10218000A058BF4FFE01E058FF4F80818F5F8C93B6
:10219000FE01E058FF4F8081E82FFF27E7FDF09513
:1021A000C456DF4FF983E883CC59D040C456DF4F83
:1021B00028813981CC59D0402530310509F459C3E3
:1021C000C456DF4F88819981CC59D0408630910523
:1021D0009CF5C456DF4FE881F981CC59D040E230FC
:1021E000F10509F40FC1C456DF4F28813981CC595C
:1021F000D040233031055CF4C456DF4F888199818B
:10220000CC59D0408130910509F43FC0A6CFC456C7
:10221000DF4FE881F981CC59D040E330F10509F472
:10222000AEC1C456DF4F28813981CC59D04024300B
:10223000310509F461C291CFC456DF4F888199817D
:10224000CC59D0408730910509F41CC4C456DF4FE7
:10225000E881F981CC59D040E730F1050CF497C3FF
:10226000C456DF4F28813981CC59D0402830310500
:1022700009F483C4C456DF4F88819981CC59D0407A
:102280008930910509F4F4C468CFFE01EF57FF4F80
:102290006081718182810E94AA0CFE01E558FF4F86
:1022A00080E090E0A8E4B2E480839183A283B383CA
:1022B0008E0109581F4FFE01E558FF4F6081718163
:1022C0008281938120E030E04AEF54E40E941702BB
:1022D000DC01CB01F80180839183A283B383FE01EB
:1022E000E958FF4F608171818281938120E030E065
:1022F00040E85FE30E947103882344F4FE01EB5839
:10230000FF4F81E090E09183808364C0FE01E95833
:10231000FF4F608171818281938120E03FEF4FE721
:1023200057E40E94110318160CF043C0FE01E55853
:10233000FF4F608171818281938120E030E040E233
:1023400051E40E941702DC01CB018E010B581F4F94
:10235000BC01CD010E944100DC01CB01F801918359
:1023600080831FC0FE01ED58FF4F88EC90E0918301
:102370008083FE01ED58FF4F808191810197F1F735
:10238000FE01ED58FF4F91838083DE01AB58BF4FB4
:10239000FE01EB58FF4F80819181019711969C932C
:1023A0008E93FE01EB58FF4F808191810097D1F60B
:1023B000D4CE8E010B581F4FFE01E958FF4F6081AC
:1023C0007181828193810E944100DC01CB01F8017F
:1023D00091838083DE01AF58BF4FFE01EB58FF4F62
:1023E0008081918111969C938E93FE01EF58FF4F4F
:1023F000808191810197F1F7FE01EF58FF4F9183A2
:102400008083ABCEFE01EC57FF4F608171818281EA
:102410000E94AA0CFE01E359FF4F80E090E0A8E47F
:10242000B2E480839183A283B3838E0107591F4F47
:10243000FE01E359FF4F608171818281938120E029
:1024400030E04AEF54E40E941702DC01CB01F801AE
:1024500080839183A283B383FE01E759FF4F60819C
:1024600071818281938120E030E040E85FE30E9447
:102470007103882344F4FE01E959FF4F81E090E0A5
:102480009183808364C0FE01E759FF4F60817181B1
:102490008281938120E03FEF4FE757E40E941103D0
:1024A00018160CF043C0FE01E359FF4F60817181A3
:1024B0008281938120E030E040E251E40E941702E3
:1024C000DC01CB018E0109591F4FBC01CD010E94D7
:1024D0004100DC01CB01F801918380831FC0FE0124
:1024E000EB59FF4F88EC90E091838083FE01EB591C
:1024F000FF4F808191810197F1F7FE01EB59FF4F6A
:1025000091838083DE01A959BF4FFE01E959FF4F36
:1025100080819181019711969C938E93FE01E959D8
:10252000FF4F808191810097D1F617CE8E01095916
:102530001F4FFE01E759FF4F6081718182819381B6
:102540000E944100DC01CB01F80191838083DE0110
:10255000AD59BF4FFE01E959FF4F8081918111961E
:102560009C938E93FE01ED59FF4F808191810197DD
:10257000F1F7FE01ED59FF4F91838083EECDFE010F
:10258000E957FF4F6081718182810E94AA0CFE0190
:10259000E15AFF4F80E090E0A8E4B2E480839183A9
:1025A000A283B3838E01055A1F4FFE01E15AFF4FEC
:1025B000608171818281938120E030E04AEF54E4B0
:1025C0000E941702DC01CB01F80180839183A28372
:1025D000B383FE01E55AFF4F60817181828193814F
:1025E00020E030E040E85FE30E947103882344F478
:1025F000FE01E75AFF4F81E090E09183808364C041
:10260000FE01E55AFF4F608171818281938120E054
:102610003FEF4FE757E40E94110318160CF043C038
:10262000FE01E15AFF4F608171818281938120E038
:1026300030E040E251E40E941702DC01CB018E0140
:10264000075A1F4FBC01CD010E944100DC01CB01A4
:10265000F801918380831FC0FE01E95AFF4F88EC87
:1026600090E091838083FE01E95AFF4F8081918140
:102670000197F1F7FE01E95AFF4F91838083DE0154
:10268000A75ABF4FFE01E75AFF4F80819181019702
:1026900011969C938E93FE01E75AFF4F80819181A2
:1026A0000097D1F65ACD8E01075A1F4FFE01E55A09
:1026B000FF4F60817181828193810E944100DC0122
:1026C000CB01F80191838083DE01AB5ABF4FFE013D
:1026D000E75AFF4F8081918111969C938E93FE0162
:1026E000EB5AFF4F808191810197F1F7FE01EB5A80
:1026F000FF4F9183808331CDFE01E657FF4F60810C
:10270000718182810E94AA0CFE01EF5AFF4F80E086
:1027100090E0A8E4B2E480839183A283B3838E0126
:10272000035B1F4FFE01EF5AFF4F60817181828171
:10273000938120E030E04AEF54E40E941702DC016C
:10274000CB01F80180839183A283B383FE01E35B15
:10275000FF4F608171818281938120E030E040E809
:102760005FE30E947103882344F4FE01E55BFF4FA1
:1027700081E090E09183808364C0FE01E35BFF4FC2
:10278000608171818281938120E03FEF4FE757E4C0
:102790000E94110318160CF043C0FE01EF5AFF4FC0
:1027A000608171818281938120E030E040E251E4D8
:1027B0000E941702DC01CB018E01055B1F4FBC019B
:1027C000CD010E944100DC01CB01F801918380839F
:1027D0001FC0FE01E75BFF4F88EC90E09183808390
:1027E000FE01E75BFF4F808191810197F1F7FE01C8
:1027F000E75BFF4F91838083DE01A55BBF4FFE0146
:10280000E55BFF4F80819181019711969C938E9398
:10281000FE01E55BFF4F808191810097D1F69DCC51
:102820008E01055B1F4FFE01E35BFF4F60817181ED
:10283000828193810E944100DC01CB01F8019183E8
:102840008083DE01A95BBF4FFE01E55BFF4F808106
:10285000918111969C938E93FE01E95BFF4F8081DD
:1028600091810197F1F7FE01E95BFF4F918380832E
:1028700074CCFE01E357FF4F6081718182810E9419
:10288000AA0CFE01ED5BFF4F80E090E0A8E4B2E40B
:1028900080839183A283B3838E01015C1F4FFE016D
:1028A000ED5BFF4F608171818281938120E030E098
:1028B0004AEF54E40E941702DC01CB01F801808347
:1028C0009183A283B383FE01FF966081718182812F
:1028D000938120E030E040E85FE30E9471038823A9
:1028E0002CF481E090E09EAF8DAF46C0FE01FF96D4
:1028F000608171818281938120E03FEF4FE757E44F
:102900000E941103181664F5FE01ED5BFF4F608114
:1029100071818281938120E030E040E251E40E94A5
:102920001702DC01CB01BC01CD010E944100DC019A
:10293000CB019EAF8DAF0FC088EC90E09CAF8BAF0A
:102940008BAD9CAD0197F1F79CAF8BAF8DAD9EAD7C
:1029500001979EAF8DAF8DAD9EAD009769F7FDCB12
:10296000FE01FF9660817181828193810E94410006
:10297000DC01CB019EAF8DAF8DAD9EAD9AAF89AF1F
:1029800089AD9AAD0197F1F79AAF89AFE6CBFE0119
:10299000E057FF4F6081718182810E94AA0C80E024
:1029A00090E0A8E4B2E48DAB9EABAFABB8AF6DA93D
:1029B0007EA98FA998AD20E030E04AEF54E40E9450
:1029C0001702DC01CB0189AB9AABABABBCAB69A9FD
:1029D0007AA98BA99CA920E030E040E85FE30E943F
:1029E000710388232CF481E090E098AB8FA73FC05F
:1029F00069A97AA98BA99CA920E03FEF4FE757E48A
:102A00000E94110318164CF56DA97EA98FA998ADE7
:102A100020E030E040E251E40E941702DC01CB01EB
:102A2000BC01CD010E944100DC01CB0198AB8FA716
:102A30000FC088EC90E09EA78DA78DA59EA501975D
:102A4000F1F79EA78DA78FA598A9019798AB8FA79F
:102A50008FA598A9009769F780CB69A97AA98BA956
:102A60009CA90E944100DC01CB0198AB8FA78FA5E8
:102A700098A99CA78BA78BA59CA50197F1F79CA76C
:102A80008BA76BCBFE01ED56FF4F60817181828178
:102A90000E94AA0C80E090E0A8E4B2E48FA398A77B
:102AA000A9A7BAA76FA178A589A59AA520E030E0CB
:102AB0004AEF54E40E941702DC01CB018BA39CA3D4
:102AC000ADA3BEA36BA17CA18DA19EA120E030E0AF
:102AD00040E85FE30E94710388232CF481E090E0DA
:102AE0009AA389A33FC06BA17CA18DA19EA120E0E8
:102AF0003FEF4FE757E40E94110318164CF56FA102
:102B000078A589A59AA520E030E040E251E40E9432
:102B10001702DC01CB01BC01CD010E944100DC01A8
:102B2000CB019AA389A30FC088EC90E098A38F8F64
:102B30008F8D98A10197F1F798A38F8F89A19AA102
:102B400001979AA389A389A19AA1009769F705CB58
:102B50006BA17CA18DA19EA10E944100DC01CB0153
:102B60009AA389A389A19AA19E8F8D8F8D8D9E8D09
:102B70000197F1F79E8F8D8FF0CAFE01EA56FF4F45
:102B80006081718182810E94AA0C80E090E0A8E4BB
:102B9000B2E4898F9A8FAB8FBC8F698D7A8D8B8DC4
:102BA0009C8D20E030E04AEF54E40E941702DC01E3
:102BB000CB018D8B9E8BAF8BB88F6D897E898F8972
:102BC000988D20E030E040E85FE30E9471038823A5
:102BD0002CF481E090E09C8B8B8B3FC06D897E89CB
:102BE0008F89988D20E03FEF4FE757E40E94110353
:102BF00018164CF5698D7A8D8B8D9C8D20E030E018
:102C000040E251E40E941702DC01CB01BC01CD017E
:102C10000E944100DC01CB019C8B8B8B0FC088ECA8
:102C200090E09A8B898B89899A890197F1F79A8B21
:102C3000898B8B899C8901979C8B8B8B8B899C8939
:102C4000009769F78ACA6D897E898F89988D0E945D
:102C50004100DC01CB019C8B8B8B8B899C89988BF1
:102C60008F878F8598890197F1F7988B8F8775CA21
:102C7000FE01EF57FF4F6081718182810E94CC0C71
:102C8000FE01EC57FF4F6081718182810E94CC0C64
:102C9000FE01E957FF4F6081718182810E94CC0C57
:102CA000FE01E657FF4F6081718182810E94CC0C4A
:102CB000FE01E357FF4F6081718182810E94CC0C3D
:102CC000FE01E057FF4F6081718182810E94CC0C30
:102CD000FE01ED56FF4F6081718182810E94CC0C14
:102CE000FE01EA56FF4F6081718182810E94CC0C07
:102CF00080E090E0A8E4B2E48B879C87AD87BE8734
:102D00006B857C858D859E8520E030E04AEF54E41C
:102D10000E941702DC01CB018F839887A987BA87AD
:102D20006F81788589859A8520E030E040E85FE30F
:102D30000E94710388232CF481E090E09E838D83B0
:102D40003FC06F81788589859A8520E03FEF4FE706
:102D500057E40E94110318164CF56B857C858D8510
:102D60009E8520E030E040E251E40E941702DC0141
:102D7000CB01BC01CD010E944100DC01CB019E834F
:102D80008D830FC088EC90E09C838B838B819C812A
:102D90000197F1F79C838B838D819E8101979E83A0
:102DA0008D838D819E81009769F714C06F8178852E
:102DB00089859A850E944100DC01CB019E838D8329
:102DC0008D819E819A83898389819A810197F1F708
:102DD0009A838983FE01E058FF4F1082BEC92F926B
:102DE0003F924F925F926F927F928F929F92AF929B
:102DF000BF92CF92DF92EF92FF920F931F93CF93E8
:102E0000DF93CDB7DEB7CA1BDB0B0FB6F894DEBF7E
:102E10000FBECDBF09942A88398848885F846E84A4
:102E20007D848C849B84AA84B984C884DF80EE80EE
:102E3000FD800C811B81AA81B981CE0FD11D0FB6F7
:102E4000F894DEBF0FBECDBFED010895F894FFCF1B
:102E50000000000000000000010000000701000663
:102E6000010005010004010003010002010001014D
:042E7000000001005D
:00000001FF
