:100000000C942A000C9447000C9447000C94470071
:100010000C946A0B0C94370B0C94040B0C94D10ABF
:100020000C949E0A0C946B0A0C94380A0C94050AE2
:100030000C9447000C9447000C9447000C94470024
:100040000C9447000C9447000C9447000C94470014
:100050000C94470011241FBECFE5D8E0DEBFCDBF12
:1000600010E0A0E6B0E0E0E8F8E102C005900D92F3
:10007000A836B107D9F710E0A8E6B0E001C01D929C
:10008000A039B107E1F70E94190C0C943E0C0C94B6
:100090000000DF93CF93CDB7DEB728970FB6F89463
:1000A000DEBF0FBECDBF8A836B834C8381E0898323
:1000B0008A81843008F0F1C08B81883008F0EDC06F
:1000C0008C81813009F06FC08A81282F30E0388719
:1000D0002F838F8198858130910549F12F81388553
:1000E000223031052CF48F819885009761F0D6C0BD
:1000F0002F8138852230310571F18F8198858330C9
:100100009105E9F1CBC0AAE3B0E0EAE3F0E0808139
:10011000482F8B81282F30E081E090E0022E02C032
:10012000880F991F0A94E2F7842B8C93B7C0A7E33A
:10013000B0E0E7E3F0E08081482F8B81282F30E0AA
:1001400081E090E0022E02C0880F991F0A94E2F726
:10015000842B8C93A3C0A4E3B0E0E4E3F0E08081BF
:10016000482F8B81282F30E081E090E0022E02C0E2
:10017000880F991F0A94E2F7842B8C938FC0A1E318
:10018000B0E0E1E3F0E08081482F8B81282F30E060
:1001900081E090E0022E02C0880F991F0A94E2F7D6
:1001A000842B8C937BC08C81882309F074C08A8156
:1001B000282F30E03E832D838D819E8181309105F3
:1001C00059F12D813E81223031052CF48D819E81A3
:1001D000009769F063C02D813E812230310589F19D
:1001E0008D819E818330910509F440C057C0AAE3F8
:1001F000B0E0EAE3F0E08081482F8B81282F30E0E7
:1002000081E090E0022E02C0880F991F0A94E2F765
:10021000809584238C9342C0A7E3B0E0E7E3F0E04D
:100220008081482F8B81282F30E081E090E0022EE2
:1002300002C0880F991F0A94E2F7809584238C935B
:100240002DC0A4E3B0E0E4E3F0E08081482F8B818F
:10025000282F30E081E090E0022E02C0880F991F25
:100260000A94E2F7809584238C9318C0A1E3B0E050
:10027000E1E3F0E08081482F8B81282F30E081E09E
:1002800090E0022E02C0880F991F0A94E2F7809531
:1002900084238C9303C0198201C019828981289616
:1002A0000FB6F894DEBF0FBECDBFCF91DF9108959A
:1002B000DF93CF93CDB7DEB728970FB6F894DEBFA4
:1002C0000FBECDBF8A836B834C8381E089838A8193
:1002D000843008F0F1C08B81883008F0EDC08C814B
:1002E000813009F06FC08A81282F30E038872F8352
:1002F0008F8198858130910549F12F813885223091
:1003000031052CF48F819885009761F0D6C02F813C
:1003100038852230310571F18F81988583309105C0
:10032000E9F1CBC0ABE3B0E0EBE3F0E08081482F34
:100330008B81282F30E081E090E0022E02C0880FF0
:10034000991F0A94E2F7842B8C93B7C0A8E3B0E01E
:10035000E8E3F0E08081482F8B81282F30E081E0B6
:1003600090E0022E02C0880F991F0A94E2F7842BB6
:100370008C93A3C0A5E3B0E0E5E3F0E08081482FD3
:100380008B81282F30E081E090E0022E02C0880FA0
:10039000991F0A94E2F7842B8C938FC0A2E3B0E0FC
:1003A000E2E3F0E08081482F8B81282F30E081E06C
:1003B00090E0022E02C0880F991F0A94E2F7842B66
:1003C0008C937BC08C81882309F074C08A81282F8C
:1003D00030E03E832D838D819E818130910559F1DE
:1003E0002D813E81223031052CF48D819E81009734
:1003F00069F063C02D813E812230310589F18D8104
:100400009E818330910509F440C057C0ABE3B0E052
:10041000EBE3F0E08081482F8B81282F30E081E0F2
:1004200090E0022E02C0880F991F0A94E2F780958F
:1004300084238C9342C0A8E3B0E0E8E3F0E080813D
:10044000482F8B81282F30E081E090E0022E02C0FF
:10045000880F991F0A94E2F7809584238C932DC00E
:10046000A5E3B0E0E5E3F0E08081482F8B81282F01
:1004700030E081E090E0022E02C0880F991F0A94BC
:10048000E2F7809584238C9318C0A2E3B0E0E2E306
:10049000F0E08081482F8B81282F30E081E090E0D0
:1004A000022E02C0880F991F0A94E2F780958423D8
:1004B0008C9303C0198201C01982898128960FB6D6
:1004C000F894DEBF0FBECDBFCF91DF910895DF93CB
:1004D000CF93CDB7DEB727970FB6F894DEBF0FBE28
:1004E000CDBF8A836B835D834C8381E089838A815E
:1004F000843008F0A6C08B81883008F0A2C08A81C1
:10050000282F30E03F832E834E815F81413051059B
:10051000C1F18E819F818230910534F42E813F811B
:100520002115310571F08EC04E815F814230510539
:1005300009F447C08E819F818330910509F461C021
:1005400081C0E9E3F0E08081482F50E08B81282FC3
:1005500030E081E090E002C0880F991F2A95E2F711
:100560009A01282339238B81882F90E0A90102C0AA
:10057000559547958A95E2F7CA01EC81FD81808304
:1005800061C0E6E3F0E08081482F50E08B81282FA6
:1005900030E081E090E002C0880F991F2A95E2F7D1
:1005A0009A01282339238B81882F90E0A90102C06A
:1005B000559547958A95E2F7CA01EC81FD818083C4
:1005C00041C0E3E3F0E08081482F50E08B81282F89
:1005D00030E081E090E002C0880F991F2A95E2F791
:1005E0009A01282339238B81882F90E0A90102C02A
:1005F000559547958A95E2F7CA01EC81FD81808384
:1006000021C0E0E3F0E08081482F50E08B81282F6B
:1006100030E081E090E002C0880F991F2A95E2F750
:100620009A01282339238B81882F90E0A90102C0E9
:10063000559547958A95E2F7CA01EC81FD81808343
:1006400001C01982898127960FB6F894DEBF0FBECC
:10065000CDBFCF91DF910895DF93CF9300D000D02D
:100660000F92CDB7DEB78A836B8381E089838B815C
:10067000883008F06FC08A81282F30E03D832C83BA
:100680008C819D818130910549F12C813D81223001
:1006900031052CF48C819D81009761F05CC02C8128
:1006A0003D812230310571F18C819D81833091052E
:1006B000E9F151C0ABE3B0E0EBE3F0E08081482F1B
:1006C0008B81282F30E081E090E0022E02C0880F5D
:1006D000991F0A94E2F784278C933DC0A8E3B0E009
:1006E000E8E3F0E08081482F8B81282F30E081E023
:1006F00090E0022E02C0880F991F0A94E2F7842727
:100700008C9329C0A5E3B0E0E5E3F0E08081482FB9
:100710008B81282F30E081E090E0022E02C0880F0C
:10072000991F0A94E2F784278C9315C0A2E3B0E0E6
:10073000E2E3F0E08081482F8B81282F30E081E0D8
:1007400090E0022E02C0880F991F0A94E2F78427D6
:100750008C9301C0198289810F900F900F900F9098
:100760000F90CF91DF910895DF93CF9300D000D009
:1007700000D0CDB7DEB78A836B834C8381E0898359
:100780008A81843008F03EC18B81883008F03AC1FC
:100790008A81282F30E03E832D838D819E81813098
:1007A000910509F45DC02D813E81223031052CF484
:1007B0008D819E81009771F026C12D813E8122306E
:1007C000310509F493C08D819E818330910509F430
:1007D000D3C019C18C81813071F5A0E5B0E0E0E5AE
:1007E000F0E080818B7F8C93AAE3B0E0EAE3F0E055
:1007F0008081482F8B81282F30E081E090E002C07B
:10080000880F991F2A95E2F7809584238C93ABE398
:10081000B0E0EBE3F0E08081482F8B81282F30E0BF
:1008200081E090E0022E02C0880F991F0A94E2F73F
:10083000842B8C93E8C0ABE3B0E0EBE3F0E0808185
:10084000482F8B81282F30E081E090E0022E02C0FB
:10085000880F991F0A94E2F7809584238C93D3C064
:100860008C81813071F5A0E5B0E0E0E5F0E08081B9
:100870008B7F8C93A7E3B0E0E7E3F0E08081482F23
:100880008B81282F30E081E090E002C0880F991F13
:100890002A95E2F7809584238C93A8E3B0E0E8E3FF
:1008A000F0E08081482F8B81282F30E081E090E0BC
:1008B000022E02C0880F991F0A94E2F7842B8C93B2
:1008C000A2C0A8E3B0E0E8E3F0E08081482F8B818C
:1008D000282F30E081E090E0022E02C0880F991F9F
:1008E0000A94E2F7809584238C938DC08C818130AB
:1008F00071F5A0E5B0E0E0E5F0E080818B7F8C93BE
:10090000A4E3B0E0E4E3F0E08081482F8B81282F5E
:1009100030E081E090E002C0880F991F2A95E2F74D
:10092000809584238C93A5E3B0E0E5E3F0E080813B
:10093000482F8B81282F30E081E090E0022E02C00A
:10094000880F991F0A94E2F7842B8C935CC0A5E36F
:10095000B0E0E5E3F0E08081482F8B81282F30E084
:1009600081E090E0022E02C0880F991F0A94E2F7FE
:10097000809584238C9347C08C81813071F5A0E5EC
:10098000B0E0E0E5F0E080818B7F8C93A1E3B0E004
:10099000E1E3F0E08081482F8B81282F30E081E077
:1009A00090E002C0880F991F2A95E2F78095842372
:1009B0008C93A2E3B0E0E2E3F0E08081482F8B81EA
:1009C000282F30E081E090E0022E02C0880F991FAE
:1009D0000A94E2F7842B8C9316C0A2E3B0E0E2E322
:1009E000F0E08081482F8B81282F30E081E090E07B
:1009F000022E02C0880F991F0A94E2F78095842383
:100A00008C9301C01982898126960FB6F894DEBFB7
:100A10000FBECDBFCF91DF910895DF93CF9300D06C
:100A200000D00F92CDB7DEB78A836B8381E08983D4
:100A30008A818430A8F58A81282F30E03D832C8379
:100A40008C819D8181309105D1F02C813D812230B6
:100A500031052CF48C819D81009761F01FC02C81A1
:100A60003D812230310581F08C819D81833091055B
:100A700081F014C0EAE3F0E08B81808312C0E7E3E9
:100A8000F0E08B8180830DC0E4E3F0E08B81808314
:100A900008C0E1E3F0E08B81808303C0198201C0CC
:100AA000198289810F900F900F900F900F90CF9126
:100AB000DF910895DF93CF9300D000D00F92CDB790
:100AC000DEB78A836B8381E089838A818430A8F5CD
:100AD0008A81282F30E03D832C838C819D81813059
:100AE0009105D1F02C813D81223031052CF48C818F
:100AF0009D81009761F01FC02C813D81223031051E
:100B000081F08C819D818330910581F014C0EBE3ED
:100B1000F0E08B81808312C0E8E3F0E08B8180837A
:100B20000DC0E5E3F0E08B81808308C0E2E3F0E0F4
:100B30008B81808303C0198201C0198289810F9043
:100B40000F900F900F900F90CF91DF910895DF934A
:100B5000CF9300D000D0CDB7DEB78A8381E0898300
:100B60008A81843008F03FC08A81282F30E03C839E
:100B70002B838B819C8181309105E9F02B813C8115
:100B8000223031052CF48B819C81009761F02CC0C0
:100B90002B813C8122303105B1F08B819C818330E7
:100BA0009105C9F021C0ABE3B0E0EBE3F0E0808158
:100BB00080958C9319C0A8E3B0E0E8E3F0E0808171
:100BC00080958C9311C0A5E3B0E0E5E3F0E080816F
:100BD00080958C9309C0A2E3B0E0E2E3F0E080816D
:100BE00080958C9301C0198289810F900F900F908E
:100BF0000F90CF91DF910895DF93CF9300D000D075
:100C000000D0CDB7DEB78A837C836B8381E0898394
:100C10008A818430E8F58A81282F30E03E832D8355
:100C20008D819E8181309105E1F02D813E812230C0
:100C300031052CF48D819E81009761F027C02D81B4
:100C40003E8122303105A1F08D819E818330910556
:100C5000B1F01CC0E9E3F0E08081EB81FC8180838E
:100C600018C0E6E3F0E08081EB81FC81808311C055
:100C7000E3E3F0E08081EB81FC8180830AC0E0E364
:100C8000F0E08081EB81FC81808303C0198201C088
:100C90001982898126960FB6F894DEBF0FBECDBFAC
:100CA000CF91DF910895DF93CF9300D000D00F92C2
:100CB000CDB7DEB78A836B8381E089838A818430F4
:100CC00008F063C08B818295807F8B838A81282F77
:100CD00030E03D832C838C819D818130910529F109
:100CE0002C813D81223031052CF48C819D8100972F
:100CF00061F04CC02C813D812230310531F18C8175
:100D00009D818330910589F141C0ABE3B0E0EBE315
:100D1000F0E080818F708C93ABE3B0E0EBE3F0E028
:100D200090818B81892B8C9331C0A8E3B0E0E8E3FC
:100D3000F0E080818F708C93A8E3B0E0E8E3F0E00E
:100D400090818B81892B8C9321C0A5E3B0E0E5E3F2
:100D5000F0E080818F708C93A5E3B0E0E5E3F0E0F4
:100D600090818B81892B8C9311C0A2E3B0E0E2E3E8
:100D7000F0E080818F708C93A2E3B0E0E2E3F0E0DA
:100D800090818B81892B8C9301C0198289810F906E
:100D90000F900F900F900F90CF91DF910895DF93F8
:100DA000CF9300D000D00F92CDB7DEB78A836B838C
:100DB00081E089838A81843008F062C08B818F70E2
:100DC0008B838A81282F30E03D832C838C819D8109
:100DD0008130910529F12C813D81223031052CF49F
:100DE0008C819D81009761F04CC02C813D81223027
:100DF000310531F18C819D818330910589F141C0AC
:100E0000ABE3B0E0EBE3F0E08081807F8C93ABE379
:100E1000B0E0EBE3F0E090818B81892B8C9331C0C3
:100E2000A8E3B0E0E8E3F0E08081807F8C93A8E362
:100E3000B0E0E8E3F0E090818B81892B8C9321C0B6
:100E4000A5E3B0E0E5E3F0E08081807F8C93A5E34B
:100E5000B0E0E5E3F0E090818B81892B8C9311C0A9
:100E6000A2E3B0E0E2E3F0E08081807F8C93A2E334
:100E7000B0E0E2E3F0E090818B81892B8C9301C09C
:100E8000198289810F900F900F900F900F90CF9142
:100E9000DF910895DF93CF93CDB7DEB7AFE5B0E034
:100EA000EFE5F0E0808180688C93CF91DF91089529
:100EB000DF93CF93CDB7DEB7AFE5B0E0EFE5F0E07D
:100EC00080818F778C93CF91DF910895DF93CF93BB
:100ED00000D00F92CDB7DEB769837A838B83898187
:100EE0009A81692F41E00E9449000F900F900F9066
:100EF000CF91DF910895DF93CF9300D00F92CDB7BC
:100F0000DEB769837A838B838B81813039F4898161
:100F10009A81692F41E00E94580109C08B81882382
:100F200031F489819A81692F40E00E9458010F9025
:100F30000F900F90CF91DF910895DF93CF9300D062
:100F40000F92CDB7DEB769837A838B838B81813033
:100F500039F489819A81692F40E00E94580109C0C3
:100F60008B81882331F489819A81692F41E00E9425
:100F700058010F900F900F90CF91DF910895DF935C
:100F8000CF9300D00F92CDB7DEB769837A838B837E
:100F900089819A81692F0E942C030F900F900F90E6
:100FA000CF91DF910895DF93CF93CDB7DEB7A3E55F
:100FB000B0E0E3E5F0E080818F7B8C93A3E5B0E0C7
:100FC000E3E5F0E08081877F8C93E2E5F0E080EC60
:100FD0008083A9E5B0E0E9E5F0E0808181608C9351
:100FE000A3E5B0E0E3E5F0E08081887F8C93A3E5A2
:100FF000B0E0E3E5F0E0808182608C93CF91DF91F7
:101000000895DF93CF93CDB7DEB7AFE4B0E0EFE460
:10101000F0E080818E7F8C93AFE4B0E0EFE4F0E00D
:10102000808182608C93AEE4B0E0EEE4F0E08081F9
:1010300088608C93AEE4B0E0EEE4F0E08081806103
:101040008C93EAE4F0E084EF91E091838083E8E41C
:10105000F0E011821082E6E4F0E080E29EE4918309
:101060008083AEE4B0E0EEE4F0E0808180648C93B5
:10107000AFE4B0E0EFE4F0E080818F7B8C93AFE4ED
:10108000B0E0EFE4F0E0808180688C93AFE4B0E002
:10109000EFE4F0E080818F7E8C93AFE4B0E0EFE48A
:1010A000F0E0808180628C93A9E5B0E0E9E5F0E0B2
:1010B00080818B7F8C93A9E5B0E0E9E5F0E0808149
:1010C0008F7E8C93A9E5B0E0E9E5F0E08081877F31
:1010D0008C93A9E5B0E0E9E5F0E080818F7D8C9309
:1010E000AEE4B0E0EEE4F0E08081887F8C93AEE483
:1010F000B0E0EEE4F0E0808182608C93CF91DF91EC
:101100000895DF93CF93CDB7DEB7A5E4B0E0E5E473
:10111000F0E080818F7B8C93A5E4B0E0E5E4F0E023
:10112000808188608C93E3E4F0E08DE78083A9E51B
:10113000B0E0E9E5F0E0808180688C93A5E4B0E060
:10114000E5E4F0E08081887F8C93A5E4B0E0E5E4FD
:10115000F0E0808183608C93CF91DF910895DF93DD
:10116000CF930F92CDB7DEB78983E2E5F0E08981B6
:1011700080830F90CF91DF910895DF93CF9300D0BC
:10118000CDB7DEB79A838983ECE4F0E089819A8158
:10119000918380830F900F90CF91DF910895DF931B
:1011A000CF930F92CDB7DEB78983E4E4F0E0898175
:1011B00080830F90CF91DF910895DF93CF930F92AB
:1011C000CDB7DEB78983ECE5F0E0898180830F90AD
:1011D000CF91DF910895DF93CF9300D0CDB7DEB7E5
:1011E0009A838983EAE4F0E089819A8191838083FC
:1011F0000F900F90CF91DF910895DF93CF9300D0A0
:10120000CDB7DEB79A838983E8E4F0E089819A81DB
:10121000918380830F900F90CF91DF910895DF939A
:10122000CF930F92CDB7DEB78983E3E4F0E08981F5
:1012300080830F90CF91DF910895DF93CF9300D0FB
:10124000CDB7DEB79A838983E6E4F0E089819A819D
:10125000918380830F900F90CF91DF910895DF935A
:10126000CF93CDB7DEB7E2E5F0E08081CF91DF919B
:101270000895DF93CF93CDB7DEB7ECE4F0E0808143
:101280009181CF91DF910895DF93CF93CDB7DEB7F2
:10129000E4E4F0E08081CF91DF910895DF93CF9374
:1012A00000D0CDB7DEB79A838983EAE4F0E0898184
:1012B0009A81918380830F900F90CF91DF91089551
:1012C000DF93CF93CDB7DEB7AEE4B0E0EEE4F0E06D
:1012D000808180648C93A9E5B0E0E9E5F0E080814D
:1012E00080628C93CF91DF910895DF93CF9300D0EC
:1012F000CDB7DEB78A8319828A81813041F4AEE4AA
:10130000B0E0EEE4F0E0808180648C930DC08A81CF
:10131000882341F4AEE4B0E0EEE4F0E080818F7B1E
:101320008C9302C081E0898389810F900F90CF91C7
:10133000DF910895DF93CF93CDB7DEB7A9E5B0E095
:10134000E9E5F0E0808180628C93CF91DF91089590
:10135000DF93CF93CDB7DEB7A9E5B0E0E9E5F0E0E4
:1013600080818F7D8C93CF91DF910895DF93CF9310
:10137000CDB7DEB7E6E4F0E080819181CF91DF91D7
:101380000895DF93CF93CDB7DEB7A1E4B0E0E1E4F9
:10139000F0E0808188608C93CF91DF910895DF9396
:1013A000CF93CDB7DEB7A1E4B0E0E1E4F0E0808117
:1013B00088618C93E1E4F0E01082CF91DF91089591
:1013C000DF93CF9300D000D0CDB7DEB79B838A8365
:1013D0006C8319828A819B81009769F08C81882FA8
:1013E00090E0880F991FFC01E859FF4F8A819B818B
:1013F0009183808302C082E0898389810F900F905E
:101400000F900F90CF91DF9108951F920F920FB61A
:101410000F9211242F933F934F935F936F937F937A
:101420008F939F93AF93BF93EF93FF93DF93CF93EC
:10143000CDB7DEB780917E0090917F00009729F0B4
:10144000E0917E00F0917F000995CF91DF91FF91AF
:10145000EF91BF91AF919F918F917F916F915F912C
:101460004F913F912F910F900FBE0F901F901895A5
:101470001F920F920FB60F9211242F933F934F9309
:101480005F936F937F938F939F93AF93BF93EF93EC
:10149000FF93DF93CF93CDB7DEB780917C0090911F
:1014A0007D00009729F0E0917C00F0917D00099586
:1014B000CF91DF91FF91EF91BF91AF919F918F916C
:1014C0007F916F915F914F913F912F910F900FBE40
:1014D0000F901F9018951F920F920FB60F92112424
:1014E0002F933F934F935F936F937F938F939F932C
:1014F000AF93BF93EF93FF93DF93CF93CDB7DEB757
:1015000080917A0090917B00009729F0E0917A0019
:10151000F0917B000995CF91DF91FF91EF91BF9101
:10152000AF919F918F917F916F915F914F913F917B
:101530002F910F900FBE0F901F9018951F920F9232
:101540000FB60F9211242F933F934F935F936F9396
:101550007F938F939F93AF93BF93EF93FF93DF930B
:10156000CF93CDB7DEB78091780090917900009746
:1015700029F0E0917800F09179000995CF91DF9101
:10158000FF91EF91BF91AF919F918F917F916F915B
:101590005F914F913F912F910F900FBE0F901F9031
:1015A00018951F920F920FB60F9211242F933F930D
:1015B0004F935F936F937F938F939F93AF93BF935B
:1015C000EF93FF93DF93CF93CDB7DEB78091760093
:1015D00090917700009729F0E0917600F0917700E4
:1015E0000995CF91DF91FF91EF91BF91AF919F91BD
:1015F0008F917F916F915F914F913F912F910F90BC
:101600000FBE0F901F9018951F920F920FB60F925A
:1016100011242F933F934F935F936F937F938F93F7
:101620009F93AF93BF93EF93FF93DF93CF93CDB788
:10163000DEB78091740090917500009729F0E091D9
:101640007400F09175000995CF91DF91FF91EF91B2
:10165000BF91AF919F918F917F916F915F914F91CA
:101660003F912F910F900FBE0F901F9018951F92D2
:101670000F920FB60F9211242F933F934F935F93C6
:101680006F937F938F939F93AF93BF93EF93FF934A
:10169000DF93CF93CDB7DEB7809172009091730046
:1016A000009729F0E0917200F09173000995CF91B5
:1016B000DF91FF91EF91BF91AF919F918F917F91BA
:1016C0006F915F914F913F912F910F900FBE0F90AF
:1016D0001F9018951F920F920FB60F9211242F93FF
:1016E0003F934F935F936F937F938F939F93AF93AA
:1016F000BF93EF93FF93DF93CF93CDB7DEB7809186
:10170000700090917100009729F0E0917000F091C5
:1017100071000995CF91DF91FF91EF91BF91AF914A
:101720009F918F917F916F915F914F913F912F91F9
:101730000F900FBE0F901F901895DF93CF93CDB7EA
:10174000DEB78091880090918900A0918A00B091C5
:101750008B000196A11DB11D809388009093890094
:10176000A0938A00B0938B008091880090918900AB
:10177000A0918A00B0918B00833123E1920720E091
:10178000A20720E0B207A1F4809166000E94AF0892
:101790006091600070916100809162000E94BF07BB
:1017A000109288001092890010928A0010928B008B
:1017B000CF91DF910895DF93CF93CDB7DEB78091BE
:1017C0008C0090918D00A0918E00B0918F000196B9
:1017D000A11DB11D80938C0090938D00A0938E006D
:1017E000B0938F0080918C0090918D00A0918E001D
:1017F000B0918F00883E23E0920720E0A20720E00E
:10180000B207A1F4809167000E940F096091630004
:1018100070916400809165000E94BF0710928C0057
:1018200010928D0010928E0010928F00CF91DF9158
:101830000895DF93CF93CDB7DEB7609160007091CC
:101840006100809162000E94660760916300709160
:101850006400809165000E9466070E94D3070E9481
:1018600081088DE99BE06BE00E94E0098BED9BE035
:1018700064E00E94E0090E944A07FFCFF894FFCF7E
:08188000000001000101C07D20
:00000001FF
