:020000040800F2
:1000000000280020650D0008B50D0008B50D00089A
:10001000B50D0008B50D0008B50D00080000000082
:10002000000000000000000000000000B50D000806
:10003000B50D000800000000B50D0008B50D000862
:10004000B50D0008B50D0008B50D0008B50D000888
:10005000B50D0008B50D000891070008B5070008A8
:10006000D9070008FD07000821080008B50D0008A1
:10007000B50D0008B50D0008B50D0008B50D000858
:10008000B50D0008B50D0008B50D0008B50D000848
:10009000B50D0008B50D0008B50D000845080008AD
:1000A000B50D0008B50D0008B50D0008B50D000828
:1000B000B50D0008B50D0008B50D0008B50D000818
:1000C000B50D0008B50D0008B50D0008B50D000808
:1000D000B50D0008B50D0008B50D0008B50D0008F8
:1000E000ED080008B50D000800000000B50D00087F
:1000F000B50D0008B50D0008B50D0008B50D0008D8
:10010000B50D0008B50D0008B50D0008B50D0008C7
:10011000B50D0008B50D0008B50D0008B50D0008B7
:10012000B50D0008B50D0008B50D0008B50D0008A7
:1001300010B5054C237833B9044B13B10448AFF321
:1001400000800123237010BD00000020000000008B
:10015000000E000808B5034B1BB103490348AFF379
:10016000008008BD0000000004000020000E000810
:1001700080B586B000AF00F033F800F083F9144882
:1001800000F0DEF91E2000F045F800F039F9114AC0
:100190003B1D07CA83E8070000233B740E4B7B61BD
:1001A00001237B743B1D184600F0F6F90B4B01222E
:1001B0001A700A4B1B78002B04D000F021F9074B72
:1001C00000221A704FF47A7000F024F8F1E700BFB3
:1001D000180E0008380E00084D0200081C00002010
:1001E00080B400AF0A4B9B69094A43F00403936152
:1001F000074B9B69064A43F008039361044B9B69D4
:10020000034A43F00103936100BFBD4680BC7047C1
:100210000010024080B485B000AF78600023FB601E
:100220000BE00023BB6002E0BB680133BB60BB682E
:10023000FE2BF9D9FB680133FB60FA687B689A42B0
:10024000EFD300BF1437BD4680BC704780B500AF08
:10025000054B01221A70054800F072F94FF47A70CC
:10026000FFF7D8FF00BF80BD1C000020440E00082F
:1002700080B485B000AF78600023FB600BE0002302
:10028000BB6002E0BB680133BB60BB68FE2BF9D9E1
:10029000FB680133FB60FA687B689A42EFD300BFCA
:1002A0001437BD4680BC704780B500AF524B4FF449
:1002B00080721A80504B04229A704F4B0122DA70E0
:1002C0004D494E4800F0A3FC4B4B4FF400721A808E
:1002D000494B04229A70484B0122DA70464947483C
:1002E00000F095FC444B4FF480621A80424B04228C
:1002F0009A70414B0122DA703F49404800F087FC78
:100300003D4B01221A803C4B04229A703A4B012249
:10031000DA703949394800F07AFC374B02221A80EA
:10032000354B04229A70344B0122DA70324933483B
:1003300000F06DFC304B04221A802F4B04229A707F
:100340002D4B0122DA702C492C4800F060FC2A4B1E
:1003500008221A80284B04229A70274B0122DA7057
:100360002549264800F053FC234B10221A80224BCB
:1003700004229A70204B0122DA701F491F4800F0B6
:1003800046FC1D4B20221A801B4B04229A701A4BEC
:100390000122DA701849194800F039FC164B402246
:1003A0001A80154B04229A70134B0122DA701249FD
:1003B000124800F02CFC104B80221A800E4B0422B5
:1003C0009A700D4B0122DA700B490C4800F01FFCAB
:1003D00000224FF48061094800F098FC00224FF49D
:1003E0008071064800F092FC00224FF4007103482F
:1003F00000F08CFC00BF80BD200000200008014000
:1004000080B500AF012000F057F800BF80BD0000AC
:1004100080B500AF01224FF48061074800F076FC00
:100420003220FFF725FF00224FF48061024800F0E0
:100430006DFC00BF80BD00BF0008014080B582B0E8
:1004400000AF03460A46FB711346BB71FB79012BD3
:1004500008D1BB790F2B05D8BB79803BDBB218469E
:1004600000F02AF8FB79022B08D1BB790F2B05D8B5
:10047000BB79403BDBB2184600F01EF800BF0837DE
:10048000BD4680BD80B500AF1420FFF7F1FEFFF739
:100490000BFF0F20FFF7ECFEFFF7B2FF382000F054
:1004A0000BF8062000F008F8802000F005F80F2077
:1004B00000F002F800BF80BD80B582B000AF0346F7
:1004C000FB71FB799BB219460B4800F036FC002209
:1004D0004FF40071084800F019FC00224FF48071BD
:1004E000054800F013FC0120FFF7C2FEFFF790FF64
:1004F00000BF0837BD4680BD0008014080B582B00E
:1005000000AF0346FB71FB799BB219460B4800F024
:1005100014FC00224FF40071084800F0F7FB0122A0
:100520004FF48071054800F0F1FB0120FFF7A0FEB9
:10053000FFF76EFF00BF0837BD4680BD00080140D1
:1005400080B584B000AF78600023FB601CE0FB68DE
:100550000133FB607B685A1C7A601B781846FFF7F2
:10056000CDFFFB68102B04D100210220FFF766FFAE
:100570000AE0FB68202B07D1FFF742FF0021012092
:10058000FFF75CFF0023FB607B681B78002BDED14C
:1005900000BF1037BD4680BD80B582B000AF786027
:1005A000786800F005F800BF0837BD4680BD000040
:1005B00080B584B000AF78607B681B893B810123E4
:1005C000BB727B685B6807F108021146184600F0B1
:1005D0001EFB7B681B889B089BB2FB737B681B8898
:1005E000DBB203F00303DBB29B00BB73614AFB7B0E
:1005F000023352F82320BB7B0F2101FA03F3DB43C4
:1006000018465C49FB7B0240023341F82320594ADB
:10061000FB7B023352F823207B685B6856498B4290
:1006200016D07B685B6855498B420FD07B685B684E
:1006300053498B4208D07B685B6852498B4201D199
:10064000032306E0002304E0022302E0012300E08C
:100650000023B97B8B4018464649FB7B024302339B
:1006600041F82320484B9B687A6812881146012282
:100670008A40D2431146444A0B409360424BDB68A8
:100680007A681288114601228A40D24311463E4AB6
:100690000B40D3607B681B7B002B0BD13A4B9B68D4
:1006A0007A681288114601228A401146364A0B4365
:1006B000936029E07B681B7B012B0BD1324BDB68FD
:1006C0007A681288114601228A4011462E4A0B434D
:1006D000D36019E07B681B7B022B15D12A4B9B68EA
:1006E0007A681288114601228A401146264A0B4335
:1006F0009360254BDB687A681288114601228A4094
:100700001146214A0B43D3607B681B8819467B68DE
:100710001B691E4A42F821307B685B7B012B10D19C
:10072000194B1B687A681288114601228A401146CB
:10073000154A0B4313607B681B88184600F038F994
:1007400014E07B685B7B002B10D10F4B1B687A6831
:100750001288114601228A40D24311460A4A0B40B0
:1007600013607B681B88184600F088F900BF1037BB
:10077000BD4680BD0000014000080140000C014062
:10078000001001400014014000040140240000203A
:1007900080B500AF054B5B69044A43F00103536128
:1007A000034B1B68984700BF80BD00BF0004014099
:1007B0002400002080B500AF054B5B69044A43F07C
:1007C00002035361034B5B68984700BF80BD00BFC5
:1007D000000401402400002080B500AF054B5B6998
:1007E000044A43F004035361034B9B68984700BFDE
:1007F00080BD00BF000401402400002080B500AF90
:10080000054B5B69044A43F008035361034BDB6803
:10081000984700BF80BD00BF0004014024000020B5
:1008200080B500AF054B5B69044A43F01003536188
:10083000034B1B69984700BF80BD00BF0004014007
:100840002400002080B500AF264B5B6903F0200335
:10085000002B08D0234B5B69224A43F020035361ED
:10086000214B5B6998471F4B5B6903F04003002BEA
:1008700008D01C4B5B691B4A43F0400353611A4B81
:100880009B699847174B5B6903F08003002B08D0E6
:10089000144B5B69134A43F080035361124BDB69CD
:1008A0009847104B5B6903F48073002B08D00D4B05
:1008B0005B690C4A43F4807353610B4B1B6A984786
:1008C000084B5B6903F40073002B08D0054B5B6990
:1008D000044A43F400735361034B5B6A984700BFBB
:1008E00080BD00BF000401402400002080B500AF9F
:1008F0002D4B5B6903F48063002B08D02A4B5B69A6
:10090000294A43F480635361284B9B6A9847264BDE
:100910005B6903F40063002B08D0234B5B69224A18
:1009200043F400635361214BDB6A98471E4B5B69BC
:1009300003F48053002B08D01B4B5B691A4A43F425
:1009400080535361194B1B6B9847174B5B6903F43A
:100950000053002B08D0144B5B69134A43F4005337
:100960005361124B5B6B98470F4B5B6903F48043F9
:10097000002B08D00C4B5B690B4A43F48043536156
:100980000A4B9B6B9847084B5B6903F40043002BB1
:1009900008D0054B5B69044A43F400435361034BA1
:1009A000DB6B984700BF80BD00040140240000209D
:1009B00080B483B000AF0346FB80FB880F2B54D874
:1009C00001A252F823F000BF090A0008170A000824
:1009D000250A0008330A0008410A00084F0A0008E7
:1009E0004F0A00084F0A00084F0A00084F0A000883
:1009F0005D0A00085D0A00085D0A00085D0A00083B
:100A00005D0A00085D0A00081A4B1B68194A43F08A
:100A10004003136029E0174B1B68164A43F080031C
:100A2000136022E0134B1B68124A43F48073136077
:100A30001BE0104B1B680F4A43F40073136014E073
:100A40000C4B1B680B4A43F4806313600DE0094BA9
:100A50001B68084A43F40003136006E0064B1B685A
:100A6000054A43F48073136000BF00BF0C37BD46D6
:100A700080BC704700E100E004E100E080B483B096
:100A800000AF0346FB80FB880F2B54D801A252F81D
:100A900023F000BFD50A0008E30A0008F10A0008A5
:100AA000FF0A00080D0B00081B0B00081B0B0008B9
:100AB0001B0B00081B0B00081B0B0008290B000870
:100AC000290B0008290B0008290B0008290B000836
:100AD000290B00081A4B1B68194A43F040031360A6
:100AE00029E0174B1B68164A43F08003136022E08D
:100AF000134B1B68124A43F4807313601BE0104BC6
:100B00001B680F4A43F40073136014E00C4B1B681E
:100B10000B4A43F4806313600DE0094B1B68084ADD
:100B200043F40003136006E0064B1B68054A43F4D8
:100B30008073136000BF00BF0C37BD4680BC704798
:100B400080E100E084E100E080B483B000AF0346C0
:100B5000FB80FB88802B42D0802B11DC082B36D009
:100B6000082B06DC022B2ED0042B2ED0012B28D0F4
:100B700047E0202B2FD0402B2FD0102B29D040E046
:100B8000B3F5006F33D0B3F5006F09DCB3F5007F28
:100B900029D0B3F5806F28D0B3F5807F21D030E025
:100BA000B3F5005F27D0B3F5005F03DCB3F5805FDA
:100BB0001FD026E0B3F5804F1FD0B3F5004F1ED0F5
:100BC0001FE000231EE004231CE008231AE00C238E
:100BD00018E0102316E0142314E0182312E01C235D
:100BE00010E000230EE004230CE008230AE00C23AD
:100BF00008E0102306E0142304E0182302E01C237D
:100C000000E0002318460C37BD4680BC704790B505
:100C100085B000AF786039600023BB600023FB73B0
:100C20003B681B88FF2B01D87B6801E07B6804339D
:100C3000BB603B681B881846FFF786FF03461A46D1
:100C40000F239340DA43BB681B681A40BB681A60E5
:100C50003B689B78072B0BD03B689B78062B07D013
:100C60003B689B78052B03D03B689B78042B0ED107
:100C70003B689B78043B9B005AB23B68DB785BB2D5
:100C800013435BB2DBB203F00F03FB732CE03B6852
:100C90009B78002B03D03B689B78012B07D13B68E6
:100CA0009B789B00DBB203F00F03FB731CE03B68F7
:100CB0009B78082B02D10423FB7315E00823FB73F8
:100CC0003B689B78022B07D17B68DB683A68128807
:100CD0001A437B68DA6007E07B68DB683A68128851
:100CE000D2431A407B68DA60FC7B3B681B8818465D
:100CF000FFF72AFF034604FA03F2BB681B681A4396
:100D0000BB681A6000BF1437BD4690BD80B483B085
:100D100000AF78600B467B8013467B707B78002B9E
:100D200003D07A887B681A6102E07A887B685A610E
:100D300000BF0C37BD4680BC704780B483B000AFA5
:100D400078600B467B807A887B68DA6000BF0C375E
:100D5000BD4680BC704780B500AFFFF709FA00239D
:100D6000184680BD0D488546AFF300800C480D49FC
:100D70000D4A002302E0D458C4500433C4188C42F6
:100D8000F9D30A4A0A4C002301E013600432A2425C
:100D9000FBD300F011F8FFF7DEFFFEE7002800208C
:100DA00000000020000000206C0E00080000002061
:100DB00060000020FEE7000070B500250C4E0D4CD1
:100DC000A41BA410A54209D100F01AF800250A4E70
:100DD0000A4CA41BA410A54205D170BD56F82530BD
:100DE00098470135EEE756F8253098470135F2E788
:100DF000640E0008640E0008640E0008680E000807
:100E0000F8B500BFF8BC08BC9E467047F8B500BFF7
:080E1000F8BC08BC9E467047C7
:100E180048656C6C6F2045766572796F6E65202128
:100E2800204D61686D6F7564204B6172656D0000BF
:100E380009000000000C014000021700495251202F
:100E48004558544939202D2D2D3E202068617320A6
:0C0E580068617070656E65642000000029
:040E6400550100082C
:040E6800310100084C
:0400000508000D657D
:00000001FF
